:100000000C943A010C9459010C9459010C94590127
:100010000C9459010C94BF0A0C94BF0A0C94A201D1
:100020000C9459010C9459010C9459010C945901E8
:100030000C9459010C9459010C9459010C945901D8
:100040000C9459010C9424040C9459010C945901FA
:100050000C9459010C9459010C9459010C945901B8
:100060000C9459010C9459010C9459010C945901A8
:100070000C9459010C9459010C9459010C94590198
:100080000C947C030C9459010C9459010C94590163
:100090000C9459010C945901000000000000005F0D
:1000A00000000003000300143E143E14242A7F2A9B
:1000B000124333086661364955225000050300009B
:1000C000001C2241000041221C0014083E081408B4
:1000D000083E0808005030000008080808080060C2
:1000E00060000020100804023E5149453E00040211
:1000F0007F00426151494622414949361814127F16
:100100001027454545393E494949320101710907E2
:100110003649494936264949493E003636000000ED
:10012000563600000814224100141414141400411F
:1001300022140802015109063E4159555E7E090903
:10014000097E7F494949363E414141227F41414133
:100150003E7F494949417F090909013E4141493AE8
:100160007F0808087F00417F4100304040403F7FCA
:10017000081422417F404040407F020C027F7F02F2
:1001800004087F3E4141413E7F090909061E2121A5
:10019000215E7F09090976264949493201017F011B
:1001A000013F4040403F1F2040201F7F2010207F04
:1001B00041221C224107087008076151494543004C
:1001C0007F41000002040810200000417F0004026B
:1001D0000102044040404040000102040020545409
:1001E00054787F4444443838444444443844444474
:1001F0007F385454541804047E0505085454543C64
:100200007F0804047800447D40002040443D007F86
:100210001028440000417F40007C047804787C086A
:1002200004047838444444387C1414140808141422
:10023000147C007C080404485454542004043F44B3
:10024000443C4040207C1C2040201C3C4030403C32
:1002500044281028440C5050503C4464544C4400F2
:100260000836414100007F0000414136080002018C
:100270000204020011241FBECFEFD0E2DEBFCDBFCB
:1002800012E0A0E0B1E0EAE6F9E200E00BBF02C054
:1002900007900D92A43EB107D9F713E0A4EEB2E0A7
:1002A00001C01D92AD32B107E1F70E9436020C94F5
:1002B000B3140C94000080917C008B6480937C00CC
:1002C00080917A00866080937A0080917A00806CB9
:1002D00080937A0020EA3FE003C0C9010197F1F75B
:1002E00080917A0084FFF9CF2091780030E040912E
:1002F000790080917A008F7780937A00942F80E044
:10030000282B392B81EE9CEA28273927C90108952B
:1003100080911D0390911E039C0136952795309383
:100320001E0320931D0380FF08C080E094EB282764
:10033000392730931E0320931D0380911D03909154
:100340001E0308951F920F920FB60F920BB60F92D5
:1003500011240F931F932F933F934F935F936F93AA
:100360007F938F939F93AF93BF93EF93FF930091EE
:100370002B0310912C0320910A0330910B03409121
:100380000C0350910D0360910E0370910F03809147
:100390001003909111030E94AF070091F502109194
:1003A000F6022091FF023091000340910103509129
:1003B00002036091030370910403809105039091FF
:1003C00006030E94AF0700912B0310912C0320918C
:1003D000120330911303409114035091150360915F
:1003E00016037091170380911803909119030E94CE
:1003F000AF0700911B0310911C032091F70230916D
:10040000F8024091F9025091FA026091FB0270915A
:10041000FC028091FD029091FE020E94AF07A2E1D2
:10042000B3E0E7EFF2E088E001900D928150E1F750
:10043000AAE0B3E0EFEFF2E088E001900D92815086
:10044000E1F7FF91EF91BF91AF919F918F917F91D4
:100450006F915F914F913F912F911F910F910F904D
:100460000BBE0F900FBE0F901F9018954F925F928A
:100470006F927F928F929F92AF92BF92CF92DF92B4
:10048000EF92FF920F931F93CF93DF9380E88093B7
:100490006100109261000E94800A0E94FF088DE3B3
:1004A0000E947607EE9A8DB380638DBB1092800018
:1004B00098E0909381008091810081608093810019
:1004C00080916F00826080936F00109290009093F3
:1004D00091008091910084608093910080917100DF
:1004E00082608093710082EF9BE2909399008093E9
:1004F00098000E945B0190931E0380931D03FF24CC
:10050000F3943CE3432E22E0522ECFEFDFEF6090D6
:10051000BA017090BB018090BC019090BD01A09089
:10052000BE01C090BF01B090C001D090C101E09069
:10053000D201F092F402A7EFB2E0EAEAF1E088E03B
:1005400001900D928150E1F7A2E1B3E0E7EFF2E014
:1005500088E001900D928150E1F7AFEFB2E0E2EB5D
:10056000F1E088E001900D928150E1F7AAE0B3E05C
:10057000EFEFF2E088E001900D928150E1F74092B8
:10058000F3025092F202F0921A03109207031092B3
:100590000803D0938900C09388000E94740A9301D5
:1005A000A4016A2D7C2D8B2D9D2D00E018EF0E945B
:1005B000AF072E2D3091D3014091D4015091D50138
:1005C0006091D6017091D7018091D8019091D901A5
:1005D0000FEF17E00E94AF072091C2013091C301D5
:1005E0004091C4015091C5016091C6017091C7014D
:1005F0008091C8019091C9010FE110E00E94AF07FE
:100600002091CA013091CB014091CC015091CD0194
:100610006091CE017091CF018091D0019091D10174
:1006200000EE17E00E94AF0780E091E064E170E027
:1006300040EF50E00E94560A89E191E064E170E0E9
:1006400044E051E00E94560A83E391E064E170E0E7
:1006500048E151E00E94560A18C00E94300B892BD5
:1006600021F0109209031092F4020E945F0B892B73
:1006700021F0F09209031092F4020E94BD0B892B25
:1006800021F0509209031092F4028091F402882321
:1006900021F70E94C008789480910903823029F0E4
:1006A0008091F3028823E1F702C06799FECFF894A6
:1006B0000E94760A809109038230D9F087E491E0A4
:1006C0006AE570E046E950E00E94560A81E591E053
:1006D0006AE070E04AEA50E00E94560A2E9A07C08B
:1006E0001E9B03C00E94740A02C00E94760A67998A
:1006F000F7CF0E94C0081DCF1F920F920FB60F9226
:100700000BB60F9211240F931F932F933F934F9388
:100710005F936F937F938F939F93AF93BF93EF9369
:10072000FF93DF93CF9300D000D0CDB7DEB7809199
:1007300009038230B1F12091F30200D000D000D043
:10074000EDB7FEB731968E010F5F1F4FADB7BEB745
:1007500012961C930E93119787E791E093838283FF
:10076000248315820E94DC118DB79EB706960FB6C2
:10077000F8949EBF0FBE8DBF8CE791E061E070E002
:1007800041E050E00E94560AC80166E470E041E092
:1007900050E00E94560A8091F30281508093F30248
:1007A00008C087E891E061E070E041E050E00E941D
:1007B000560A2091070300D000D000D0EDB7FEB755
:1007C00031968E010F5F1F4FADB7BEB712961C93C7
:1007D0000E93119787E791E0938382832483158298
:1007E0000E94DC118DB79EB706960FB6F8949EBF97
:1007F0000FBE8DBF83EA91E064EB70E041E050E012
:100800000E94560AC8016CED70E041E050E00E9481
:10081000560A0F900F900F900F90CF91DF91FF919C
:10082000EF91BF91AF919F918F917F916F915F9168
:100830004F913F912F911F910F910F900BBE0F90F1
:100840000FBE0F901F9018951F920F920FB60F9228
:100850000BB60F9211241F932F933F934F935F93E7
:100860006F937F938F939F93AF93BF93CF93DF93B8
:10087000EF93FF9380910903823009F4C9C08091FE
:10088000E40287FF0CC08091F20281508093F20253
:100890008091F202882319F48EE08093F202809115
:1008A000E40218165CF48091F2028F5F8093F202EA
:1008B0008091F2028F3010F01092F2021092E40256
:1008C0008091F2028830C9F0893038F4843079F0B0
:1008D000863081F0823001F507C08C30A1F08E3077
:1008E000A9F08A30C9F40CC08FEF9FEF11C08FE1DF
:1008F00090E00EC080EE97E00BC08FEF97E008C04D
:1009000080E098EF05C08FE198EF02C080EE9FEF86
:1009100090931C0380931B030E94FF0B892BC1F053
:100920008091FB029091FC02459790F08091FB0230
:100930009091FC0201979093FC028093FB028091BE
:10094000FD029091FE0201979093FE028093FD02BA
:100950000E94EC0B892BF1F02091FD023091FE02F8
:10096000809121039091220302972817390790F470
:100970008091FB029091FC0201969093FC0280937F
:10098000FB028091FD029091FE0201969093FE027F
:100990008093FD020E94120C892BC1F08091F70216
:1009A0009091F802892B91F08091F7029091F802D2
:1009B00001979093F8028093F7028091F902909149
:1009C000FA0201979093FA028093F9020E94250C93
:1009D000892BF1F02091F9023091FA0280911F03E6
:1009E0009091200301972817390790F48091F7021E
:1009F0009091F80201969093F8028093F70280910B
:100A0000F9029091FA0201969093FA028093F9020A
:100A100080911A03882309F467C00E948801EC01C1
:100A20000E9488016CED70E00E949111182F0E94C5
:100A3000880168E171E00E949111282F2C5E243119
:100A4000B0F3CE0166E070E00E9491118F5F8430B8
:100A5000C9F0853038F4823079F0833080F4813009
:100A600001F507C08630A1F0863078F08730C9F4F0
:100A700012C08FEF9FEF11C08FE190E00EC080EEAB
:100A800097E00BC08FEF97E008C080E098EF05C0BB
:100A90008FE198EF02C080EE9FEF9093F602809373
:100AA000F502822F90E09093040380930303212F9B
:100AB00030E0309300032093FF022C5E3F4F3093D1
:100AC0000203209301034496909306038093050349
:100AD00010921A0380910903813031F40E94880139
:100AE00081708F5F8093080380910803823009F042
:100AF0005EC08091FF02909100034091DB01242FA2
:100B0000332727FD3095820F931F90930003809326
:100B1000FF028091010390910203280F391F309347
:100B200002032093010380910303909104035091E9
:100B3000DA01252F332727FD3095820F931F9093DD
:100B40000403809303038091050390910603280F0B
:100B5000391F309306032093050320910103309140
:100B6000020380911F0390912003019728173907F2
:100B700030F48091FF0290910003892B19F4419584
:100B80004093DB018091030390910403459760F04B
:100B90002091050330910603809121039091220357
:100BA00001972817390718F051955093DA012091D1
:100BB000FB023091FC0280910303909104032817FB
:100BC0003907E8F12091FD023091FE028091050382
:100BD000909106038217930790F12091F7023091CC
:100BE000F8028091FF02909100032817390738F12D
:100BF0002091F9023091FA02809101039091020351
:100C000082179307E0F020911B0330911C03809121
:100C1000F5029091F6022817390789F48091F302C2
:100C20008B5F8093F30291E090931A038091070306
:100C30008F5F809307039093DB019093DA0180919B
:100C40000903823009F0B6C020911B0330911C03C8
:100C50008091F5029091F6022817390729F08091CA
:100C6000F2028F5F8093F2028091F2028F3010F0D7
:100C70001092F2028091F2028830C9F0893038F483
:100C8000843079F0863081F0823001F507C08C30F5
:100C9000A1F08E30A9F08A30C9F40CC08FEF9FEF1D
:100CA00011C08FE190E00EC080EE97E00BC08FEF97
:100CB00097E008C080E098EF05C08FE198EF02C090
:100CC00080EE9FEF90931C0380931B032091FB0207
:100CD0003091FC0280910303909104032817390797
:100CE00090F48091FB029091FC0201969093FC029B
:100CF0008093FB028091FD029091FE0201969093F9
:100D0000FE028093FD022091FB023091FC02809153
:100D10000303909104038217930790F48091FB02E0
:100D20009091FC0201979093FC028093FB028091CA
:100D3000FD029091FE0201979093FE028093FD02C6
:100D40002091F7023091F8028091FF029091000308
:100D50002817390790F48091F7029091F8020196D4
:100D60009093F8028093F7028091F9029091FA0231
:100D700001969093FA028093F9022091F702309144
:100D8000F8028091FF02909100038217930790F47C
:100D90008091F7029091F80201979093F802809366
:100DA000F7028091F9029091FA0201979093FA026A
:100DB0008093F902FF91EF91DF91CF91BF91AF91B5
:100DC0009F918F917F916F915F914F913F912F9163
:100DD0001F910F900BBE0F900FBE0F901F90189594
:100DE00093E89093B00091E09093B1008093B300AA
:100DF00008959C01909324038093230386E390E05D
:100E0000809300402115310589F480EF90E09093A4
:100E1000200380931F0380E491E09093220380934A
:100E2000210388E490E0809300413BC021303105EC
:100E300089F480E491E09093200380931F0380EF76
:100E400090E0909322038093210388EE90E08093BA
:100E5000004127C02230310589F480EF90E0909363
:100E6000200380931F0380E491E0909322038093FA
:100E7000210388E890E08093004113C023303105BE
:100E800081F480E491E09093200380931F0380EF2E
:100E900090E0909322038093210388E290E0809376
:100EA00000418AE290E08093004020E030E03093FF
:100EB00000412093004180911F03909120030197EE
:100EC00090930041809300418BE290E0809300403A
:100ED000309300412093004180912103909122039F
:100EE0000197909300418093004108951F93682FCC
:100EF000873718F010E066E711C0883010F468E01A
:100F00000CC08D3310F010E009C08F3110F011E0EB
:100F100005C0803110F012E001C013E081EB90E0D9
:100F2000809300401093004170E0882777FD809502
:100F3000982F0E94EA0E9B01AC0160E070E080EF08
:100F400094E40E940E0E0E94380C70E002C0759569
:100F500067951A95E2F7609300411F9108950F93EA
:100F60001F93DF93CF93CDB7DEB728970FB6F894D2
:100F7000DEBF0FBECDBF29833A834B835C836D8375
:100F80007E838F83988769817A812B813C81ED8173
:100F9000FE814F8158858AE290E0809300407093F3
:100FA00000416093004130930041209300418BE267
:100FB00090E080930040F0930041E0930041509313
:100FC0000041409300418CE290E0809300402F5F0D
:100FD0003F4F261B370B4F5F5F4F4E1B5F0B241796
:100FE0003507C8F4842F877090E0829FB001839FFB
:100FF000700D929F700D1124F3E056954795FA9568
:10100000E1F7842F90E0829FF001839FF00D929F83
:10101000F00D112418C0822F877090E0849FB001DA
:10102000859F700D949F700D1124E3E036952795F0
:10103000EA95E1F7822F90E0849FF001859FF00D03
:10104000949FF00D1124862F877005C010930041E6
:101050000093004181508823C9F7CB0123E0969586
:1010600087952A95E1F78E0F9F1F21C010930041AD
:101070000093004110930041009300411093004100
:1010800000930041109300410093004110930041F0
:1010900000930041109300410093004110930041E0
:1010A0000093004110930041009300410197009785
:1010B000E9F628960FB6F894DEBF0FBECDBFCF91EC
:1010C000DF911F910F910895EF92FF920F931F935D
:1010D000DF93CF93CDB7DEB728970FB6F894DEBF76
:1010E0000FBECDBF29833A834B835C836D837E83A0
:1010F0008F83988729813A81AB81BC81ED80FE8006
:101100006F8178858AE290E08093004030930041BF
:1011100020930041B0930041A09300418BE290E006
:1011200080930040F0920041E092004170930041B2
:10113000609300418CE290E0809300400FC0F80182
:10114000819191918F0190930041809300414F5F75
:101150005F4F6417750798F72F5F3F4FA217B307CC
:1011600010F0A701F6CF28960FB6F894DEBF0FBE99
:10117000CDBFCF91DF911F910F91FF90EF90089518
:101180000F931F93DF93CF93CDB7DEB728970FB69A
:10119000F894DEBF0FBECDBF109226031092250338
:1011A000109228031092270320911F0330912003EF
:1011B00021503040809121039091220301971A829F
:1011C0001982422F3C832B831E821D8298878F8336
:1011D00000912B0310912C0329813A815C816D8150
:1011E0007E8198850E94AF0728960FB6F894DEBFDF
:1011F0000FBECDBFCF91DF911F910F91089586E073
:101200008093750080E8809374003F9A249A80ED63
:1012100097E00197F1F7479880E49CE90197F1F78F
:10122000479A80EB94E028EC30E0F9013197F1F730
:101230000197D9F788E290E08093004081E190E047
:101240008093004088E592E028EC30E0F901319786
:10125000F1F70197D9F741E050E08BEC90E08093F3
:1012600000404093004180EC90E08093004088E093
:1012700096E2909300418093004120E130E081ECC0
:1012800090E0809300402093004185EC90E08093B3
:1012900000408EE395E3909300418093004125EB5D
:1012A00030E087EC90E0809300402093004186EF8F
:1012B00090E0809300404093004180E090E0909364
:1012C00000418093004125E530E08AE390E080937F
:1012D00000402093004180E090E00E94F9060E94C7
:1012E000C008109226031092250310922803109232
:1012F000270310922C0310922B038FEF9FEF9093F4
:101300002A038093290389E290E08093004084EFD0
:1013100091E028EC30E0F9013197F1F70197D9F726
:1013200080E090E025E330E020930040809300418E
:1013300080916A00806280936A002C9A0895CF920F
:10134000DF92EF92FF920F931F93CF93DF93982F2B
:10135000209125033091260389010C5F1F4FA09136
:101360002703B091280380528F3508F083C0ED0128
:10137000279685E09802F0011124E850F0408BE2B6
:1013800090E080930040B0930041A0930041D0933F
:101390000041C09300419AE2C92ED12C8CE2E82E84
:1013A000F12C29C0C09200403093004120930041AD
:1013B0003093004120930041E09200407491AD01D0
:1013C00061E013C0862F872329F080912903909133
:1013D0002A0304C080912B0390912C039093004129
:1013E000809300414F5F5F4F660FC417D50750F7DA
:1013F00031962F5F3F4F02171307A0F68AE290E065
:10140000809300403093004120930041309300418D
:10141000209300418CE290E0809300409D010AC03F
:1014200080912B0390912C03909300418093004175
:101430002F5F3F4FC217D30798F7809125039091F4
:1014400026030696909326038093250320911F037D
:10145000309120038217930768F0109226031092B0
:1014600025038091270390912803089690932803E1
:1014700080932703DF91CF911F910F91FF90EF9001
:10148000DF90CF9008951F93CF93DF93EC0110E08E
:1014900003C00E949F091F5FFE01E10FF11D8081C3
:1014A0008823B9F7DF91CF911F9108951F93CF93B0
:1014B000DF93EC0170932603609325035093280378
:1014C0004093270310E003C00E949F091F5FFE01A5
:1014D000E10FF11D80818823B9F7DF91CF911F9132
:1014E0000895279A2F9808952F9A089514BC15BC33
:1014F0002F98089593E894BD91E095BD87BD089518
:101500008DB18F748DB98EB1806B8EB987B1837CAC
:1015100087B988B18C6388B9EAE6F0E08081856894
:10152000808308959CB1907329F48091E502803204
:10153000A9F406C09033D9F48091E502803139F4E2
:101540008091E40281508093E402903329F48091E9
:10155000E502803261F406C0992349F48091E502E6
:10156000803129F48091E4028F5F8093E4029093AC
:10157000E5028091E402089586B18C7308951F926C
:101580000F920FB60F920BB60F9211242F933F9329
:101590004F935F936F937F938F939F93AF93BF937B
:1015A000EF93FF930E94920A88EC90E00197F1F785
:1015B000FF91EF91BF91AF919F918F917F916F912B
:1015C0005F914F913F912F910F900BBE0F900FBEE7
:1015D0000F901F9018956F98779A87B1837C87B981
:1015E00088B18C6388B96F98779A87B1837C87B903
:1015F00088B18C6388B9EAE6F0E0808185688083F1
:101600000895679919C08091E6029091E702892BAD
:1016100099F48091F0029091F102892B69F481E0B4
:1016200090E09093E7028093E6029093F10280931A
:10163000F00221E030E012C0679B0EC08091E6020C
:101640009091E702892B41F01092E7021092E60296
:101650001092F1021092F00220E030E0C9010895EA
:10166000329919C08091E8029091E902892B99F48E
:101670008091F0029091F102892B69F481E090E071
:101680009093E9028093E8029093F1028093F00234
:1016900021E030E012C0329B0EC08091E8029091B0
:1016A000E902892B41F01092E9021092E8021092AF
:1016B000F1021092F00220E030E0C901089534995F
:1016C00019C08091EA029091EB02892B99F48091E4
:1016D000F0029091F102892B69F481E090E09093FF
:1016E000EB028093EA029093F1028093F00221E0F2
:1016F00030E012C0349B0EC08091EA029091EB0260
:10170000892B41F01092EB021092EA021092F10242
:101710001092F00220E030E0C9010895339919C019
:101720008091EC029091ED02892B99F48091F00266
:101730009091F102892B69F481E090E09093ED02A1
:101740008093EC029093F1028093F00221E030E06C
:1017500012C0339B0EC08091EC029091ED02892B58
:1017600041F01092ED021092EC021092F1021092F0
:10177000F00220E030E0C9010895359919C0809148
:10178000EE029091EF02892B99F48091F0029091F2
:10179000F102892B69F481E090E09093EF0280934D
:1017A000EE029093F1028093F00221E030E012C04B
:1017B000359B0EC08091EE029091EF02892B41F093
:1017C0001092EF021092EE021092F1021092F002CB
:1017D00020E030E0C9010895359909C08091F002F8
:1017E0009091F102892B19F421E030E006C01092AB
:1017F000F1021092F00220E030E0C901089533991F
:1018000009C08091F0029091F102892B19F421E036
:1018100030E006C01092F1021092F00220E030E0B9
:10182000C9010895329909C08091F0029091F102A6
:10183000892B19F421E030E006C01092F1021092D9
:10184000F00220E030E0C9010895349909C0809188
:10185000F0029091F102892B19F421E030E006C0EA
:101860001092F1021092F00220E030E0C9010895D8
:10187000EF92FF920F931F937B018C0120E030E0E9
:1018800040E05FE40E94BA0E88238CF0C801B701E3
:1018900020E030E040E05FE40E94B00D0E94480F7D
:1018A0009B01AC01205030404040504806C0C80168
:1018B000B7010E94480F9B01AC01B901CA011F91F9
:1018C0000F91FF90EF900895A0E0B0E0EAE6FCE011
:1018D0000C94A511DC012B01FA019C91923008F4C3
:1018E00039C1EB018881823008F433C1943069F446
:1018F000843009F02FC111969C9111978981981716
:1019000009F428C1ACEDB1E025C1843009F421C14E
:101910008230A9F4923009F01DC19A01AD0188E02E
:10192000EA010990AE01E90109929E018150C1F7D7
:10193000E201898111969C918923818308C19230AB
:1019400009F407C112962D903C901397EB018A8100
:101950009B811496AD90BD90CD90DC901797EC8054
:10196000FD800E811F819101281B390BB90137FFC2
:1019700004C066277727621B730B603271050CF079
:1019800061C0121613066CF537014801062E04C01B
:1019900096948794779467940A94D2F721E030E084
:1019A00040E050E004C0220F331F441F551F6A95CA
:1019B000D2F721503040404050402E213F2140235B
:1019C0005123211531054105510521F021E030E079
:1019D00040E050E079018A01E628F7280829192912
:1019E0003CC0232BD1F1260E371E35014601062EB1
:1019F00004C096948794779467940A94D2F721E070
:101A000030E040E050E004C0220F331F441F551F58
:101A10006A95D2F721503040404050402A213B2166
:101A20004C215D21211531054105510521F021E0B1
:101A300030E040E050E059016A01A628B728C828E4
:101A4000D9280BC0821593052CF01C01AA24BB24B5
:101A5000650103C0EE24FF24870111969C91D201F9
:101A600011968C91981709F445C0992339F0A80173
:101A700097012A193B094C095D0906C0A601950189
:101A80002E193F09400B510B57FD08C011823382BC
:101A9000228224833583468357831DC081E081835E
:101AA0003382228288279927DC01821B930BA40BA7
:101AB000B50B84839583A683B7830DC0220F331F94
:101AC000441F551F24833583468357838281938126
:101AD0000197938382832481358146815781DA017E
:101AE000C9010197A109B1098F5F9F4FAF4FBF4354
:101AF00028F30BC0918333822282EA0CFB1C0C1D5D
:101B00001D1DE482F5820683178383E08083248190
:101B100035814681578157FF1AC0C901AA2797FD11
:101B2000A095BA2F81709070A070B07056954795AF
:101B300037952795822B932BA42BB52B84839583E4
:101B4000A683B78382819381019693838283DF0189
:101B500001C0D201CD01CDB7DEB7E2E10C94C111D5
:101B6000A0E2B0E0E6EBFDE00C94B11169837A836A
:101B70008B839C832D833E834F835887E9E0EE2E31
:101B8000F12CEC0EFD1ECE010196B7010E94C01093
:101B90008E010F5E1F4FCE010596B8010E94C01046
:101BA0008A8991E089278A8BC701B801AE01475E17
:101BB0005F4F0E94640C0E94EB0FA096E6E00C942D
:101BC000CD11A0E2B0E0E7EEFDE00C94B111698325
:101BD0007A838B839C832D833E834F835887F9E0E0
:101BE000EF2EF12CEC0EFD1ECE010196B7010E94E6
:101BF000C0108E010F5E1F4FCE010596B8010E94E6
:101C0000C010C701B801AE01475E5F4F0E94640C6F
:101C10000E94EB0FA096E6E00C94CD11A8E1B0E095
:101C2000E4E1FEE00C94AD1169837A838B839C839D
:101C30002D833E834F835887B9E0EB2EF12CEC0EB9
:101C4000FD1ECE010196B7010E94C0108E010F5EED
:101C50001F4FCE010596B8010E94C0102985223081
:101C600008F47EC03989323010F4B8017CC08A850E
:101C70009A8989278A87243011F0223031F423177A
:101C800009F06EC06CED71E06EC0343039F41D8621
:101C90001E861F86188A1C861B8604C0323021F4DB
:101CA00084E08987B7015FC02B853C858B899C893F
:101CB000281B390B3C872B87ED84FE840F85188900
:101CC000AD88BE88CF88D88CEA14FB040C051D05AE
:101CD00040F4EE0CFF1C001F111F215030403C87C8
:101CE0002B8720E030E040E050E080E090E0A0E092
:101CF000B0E460E070E0EA14FB040C051D0540F060
:101D0000282B392B4A2B5B2BEA18FB080C091D09E1
:101D1000B695A79597958795EE0CFF1C001F111F90
:101D20006F5F7F4F6F31710531F7DA01C9018F772E
:101D30009070A070B07080349105A105B10561F478
:101D400027FD0AC0E114F1040105110529F0205C0A
:101D50003F4F4F4F5F4F20782D873E874F87588BDF
:101D6000BE01675F7F4FCB010E94EB0F6896EAE0F0
:101D70000C94C911A8E1B0E0E0ECFEE00C94B111C4
:101D800069837A838B839C832D833E834F8358871B
:101D900089E0E82EF12CEC0EFD1ECE010196B70174
:101DA0000E94C0108E010F5E1F4FCE010596B80134
:101DB0000E94C0108985823040F08989823028F0E5
:101DC000C701B8010E94381101C08FEF6896E6E0A4
:101DD0000C94CD11A8E0B0E0E0EFFEE00C94AE1161
:101DE0009B01AC0183E08983DA01C9018827B7FD33
:101DF00083959927AA27BB27B82E211531054105C0
:101E0000510519F482E089833AC08823A9F0203073
:101E100080E0380780E0480780E8580729F460E050
:101E200070E080E09FEC30C0EE24FF248701E21ACE
:101E3000F30A040B150B02C079018A018EE1C82E4A
:101E4000D12CDC82CB82ED82FE820F831887C80101
:101E5000B7010E949C0F01971816190684F4082EEA
:101E600004C0EE0CFF1C001F111F0A94D2F7ED8274
:101E7000FE820F831887C81AD90ADC82CB82BA8205
:101E8000CE0101960E94EB0F2896E9E00C94CA114E
:101E9000ACE0B0E0EEE4FFE00C94B51169837A8326
:101EA0008B839C83CE010196BE016B5F7F4F0E94A6
:101EB000C0108D81823061F1823050F1843021F484
:101EC0008E81882351F12EC02F81388537FD20C0A7
:101ED0006E812F3131051CF06623F9F023C08EE1AD
:101EE00090E0821B930B29853A854B855C8504C065
:101EF00056954795379527958A95D2F76623B1F081
:101F000050954095309521953F4F4F4F5F4F0EC0F4
:101F100020E030E040E050E009C02FEF3FEF4FEF0E
:101F20005FE704C020E030E040E050E8B901CA01BA
:101F30002C96E2E00C94D111EF92FF920F931F9335
:101F40007B018C0180E0E81680E0F80681E008075C
:101F500080E0180788F48FEFE816F10401051105F9
:101F600031F028F088E090E0A0E0B0E017C080E019
:101F700090E0A0E0B0E012C080E0E81680E0F80653
:101F800080E0080781E0180728F088E190E0A0E0F1
:101F9000B0E004C080E190E0A0E0B0E020E230E0FA
:101FA00040E050E0281B390B4A0B5B0B04C0169530
:101FB0000795F794E7948A95D2F7F701EC51FE4F15
:101FC0008081281B310941095109C9011F910F91D5
:101FD000FF90EF900895DF92EF92FF920F931F937F
:101FE000FC01E480F58006811781D18080818230F8
:101FF00048F480E090E0A0E1B0E0E82AF92A0A2B5A
:102000001B2BA5C0843009F49FC0823021F4EE243C
:10201000FF24870105C0E114F1040105110519F43D
:10202000E0E0F0E096C0628173819FEF623879074B
:102030000CF05BC022E83FEF261B370B2A3131053D
:102040002CF020E030E040E050E02AC0B801A701C9
:10205000022E04C076956795579547950A94D2F756
:1020600081E090E0A0E0B0E004C0880F991FAA1FB3
:10207000BB1F2A95D2F70197A109B1098E219F2193
:10208000A023B1230097A105B10521F081E090E0E4
:10209000A0E0B0E09A01AB01282B392B4A2B5B2B37
:1020A000DA01C9018F779070A070B070803491050B
:1020B000A105B10539F427FF09C0205C3F4F4F4F00
:1020C0005F4F04C0215C3F4F4F4F5F4FE0E0F0E0B7
:1020D0002030A0E03A07A0E04A07A0E45A0710F039
:1020E000E1E0F0E079018A0127C06038710564F50C
:1020F000FB01E158FF4FD801C7018F779070A070A6
:10210000B07080349105A105B10539F4E7FE0DC02A
:1021100080E490E0A0E0B0E004C08FE390E0A0E0B5
:10212000B0E0E80EF91E0A1F1B1F17FF05C0169529
:102130000795F794E794319687E016950795F794FD
:10214000E7948A95D1F705C0EE24FF248701EFEFCD
:10215000F0E06E2F679566276795902F9F77D7944D
:10216000DD24D7948E2F8695492F462B582F5D2935
:10217000B701CA011F910F91FF90EF90DF90089572
:10218000FC01DB01408151812281622F6F7770E079
:10219000221F2227221F9381892F880F822B282F0D
:1021A00030E0991F9927991F11969C93119721153B
:1021B0003105A9F5411551056105710511F482E05C
:1021C00037C082E89FEF13969C938E9312979A01E3
:1021D000AB0167E0220F331F441F551F6A95D1F7EB
:1021E00083E08C930DC0220F331F441F551F12969E
:1021F0008D919C911397019713969C938E931297B0
:10220000203080E0380780E0480780E4580758F322
:1022100014962D933D934D935C93179708952F3FFC
:10222000310579F4411551056105710519F484E012
:102230008C93089564FF03C081E08C9312C01C92BC
:1022400010C02F57304013963C932E93129783E083
:102250008C9387E0440F551F661F771F8A95D1F72F
:10226000706414964D935D936D937C9317970895C6
:102270001F93DC01FB019C91923008F447C08081E0
:10228000823008F443C0943051F411961C9184308C
:1022900099F58181682F70E0611B71093FC084301E
:1022A00021F0923031F48230B9F18181882389F1B3
:1022B0002DC011961C9111978230F1F08181181771
:1022C000D9F412962D913C911397828193818217B4
:1022D000930794F028173907BCF014968D919D91BF
:1022E0000D90BC91A02D24813581468157812817FE
:1022F00039074A075B0718F4112341F00AC0821717
:102300009307A407B50740F4112319F061E070E0CA
:1023100005C06FEF7FEF02C060E070E0CB011F915E
:102320000895AA1BBB1B51E107C0AA1FBB1FA6171C
:10233000B70710F0A61BB70B881F991F5A95A9F76E
:1023400080959095BC01CD0108952F923F924F92B8
:102350005F926F927F928F929F92AF92BF92CF9235
:10236000DF92EF92FF920F931F93CF93DF93CDB73E
:10237000DEB7CA1BDB0B0FB6F894DEBF0FBECDBFB6
:1023800009942A88398848885F846E847D848C8487
:102390009B84AA84B984C884DF80EE80FD800C8190
:1023A0001B81AA81B981CE0FD11D0FB6F894DEBF73
:1023B0000FBECDBFED0108950F931F93DF93CF9311
:1023C000CDB7DEB72E970FB6F894DEBF0FBECDBFE8
:1023D0000D891E8986E08C831A8309838FEF9FE71E
:1023E0009E838D839E01275E3F4FCE0101966F89AC
:1023F000788DA9010E940D122F813885020F131FBD
:10240000F80110822E960FB6F894DEBF0FBECDBF36
:10241000CF91DF911F910F9108952F923F924F928C
:102420005F926F927F928F929F92AF92BF92CF9264
:10243000DF92EF92FF920F931F93DF93CF93CDB76D
:10244000DEB72B970FB6F894DEBF0FBECDBF3C01B1
:102450002B015A01FC0117821682838181FD03C082
:102460006FEF7FEFC6C19AE0892E1E010894211CF0
:10247000311CF3012381F20123FD859123FF81911A
:102480002F01882309F4B2C1853239F423FD8591E7
:1024900023FF81912F01853229F490E0B3010E943E
:1024A0002914E7CF982FFF24EE249924FFE1FF158C
:1024B000D0F09B3269F09C3228F4903259F093327C
:1024C00091F40EC09D3249F0903369F441E024C08C
:1024D00052E0F52A84E0F82A28C098E0F92A25C0BD
:1024E000E0E1FE2A22C0F7FC29C0892F80538A3000
:1024F00070F4F6FE05C0989C902C1124980E15C01F
:10250000E89CE02C1124E80EF0E2FF2A0EC09E3277
:1025100029F4F6FC6BC140E4F42A07C09C3619F498
:1025200050E8F52A02C0983649F4F20123FD95914E
:1025300023FF91912F01992309F0B8CF892F85545A
:10254000833018F08052833038F444E050E0A40E19
:10255000B51E5FE359830FC0933631F0933779F09E
:10256000933509F056C020C0F5018081898342E08F
:1025700050E0A40EB51E610101E010E012C0F501AB
:10258000C080D180F6FC03C06FEF7FEF02C0692DE1
:1025900070E042E050E0A40EB51EC6010E941E1479
:1025A0008C015FE7F52214C0F501C080D180F6FCF4
:1025B00003C06FEF7FEF02C0692D70E042E050E092
:1025C000A40EB51EC6010E9413148C0150E8F52A12
:1025D000F3FE07C01AC080E290E0B3010E94291404
:1025E000EA948E2D90E008171907A8F30EC0F601A3
:1025F000F7FC8591F7FE81916F0190E0B3010E9495
:102600002914E110EA94015010400115110579F7E1
:10261000EAC0943611F0993669F5F7FE08C0F50165
:10262000208131814281538184E090E00AC0F5012C
:10263000808191819C01442737FD4095542F82E091
:1026400090E0A80EB91E9FE6F92257FF09C05095E9
:102650004095309521953F4F4F4F5F4FE0E8FE2A60
:10266000CA01B901A1012AE030E00E945514D82E18
:10267000D21840C0953729F41F2D1F7E2AE030E084
:102680001DC01F2D197F9F3661F0903720F49835BB
:1026900009F0ACC00FC0903739F0983709F0A6C0E8
:1026A00004C028E030E00AC0106114FD146020E18D
:1026B00030E004C014FD166020E132E017FF08C0CE
:1026C000F501608171818281938144E050E008C00E
:1026D000F50180819181BC0180E090E042E050E012
:1026E000A40EB51EA1010E945514D82ED2188FE752
:1026F000F82EF122F6FE0BC05EEFF522D91438F465
:10270000F4FE07C0F2FC05C08FEEF82202C01D2DBA
:1027100001C0192DF4FE0DC0FE01ED0DF11D8081EB
:10272000803319F499EEF92208C01F5FF2FE05C04C
:1027300003C08F2D867809F01F5F0F2DF3FC14C0A6
:10274000F0FE0FC01E1510F09D2C0BC09D2C9E0C92
:10275000911A1E2D06C080E290E0B3010E94291458
:102760001F5F1E15C0F304C01E1510F4E11A01C04E
:10277000EE2404FF0FC080E390E0B3010E9429140F
:1027800002FF1DC001FD03C088E790E00EC088E590
:1027900090E00BC0802F867891F001FF02C08BE2A1
:1027A00001C080E2F7FC8DE290E0B3010E942914A1
:1027B00006C080E390E0B3010E9429149A94D914D2
:1027C000C0F3DA94F101ED0DF11D808190E0B301C9
:1027D0000E942914DD20A9F706C080E290E0B30131
:1027E0000E942914EA94EE20C1F743CEF3016681DA
:1027F0007781CB012B960FB6F894DEBF0FBECDBF0D
:10280000CF91DF911F910F91FF90EF90DF90CF90CC
:10281000BF90AF909F908F907F906F905F904F9000
:102820003F902F900895FC01059061507040011079
:10283000D8F7809590958E0F9F1F0895FC016150E9
:10284000704001900110D8F7809590958E0F9F1FD2
:1028500008950F931F93CF93DF938C01EB018B812E
:1028600081FF1BC082FF0DC02E813F818C819D8125
:102870002817390764F4E881F9810193F983E88323
:1028800006C0E885F985802F0995892B31F48E8162
:102890009F8101969F838E8302C00FEF1FEFC801B7
:1028A000DF91CF911F910F910895FA01AA27283047
:1028B00051F1203181F1E8946F936E7F6E5F7F4F0D
:1028C0008F4F9F4FAF4FB1E03ED0B4E03CD0670F89
:1028D000781F891F9A1FA11D680F791F8A1F911DDC
:1028E000A11D6A0F711D811D911DA11D20D009F42C
:1028F00068943F912AE0269F11243019305D31936E
:10290000DEF6CF010895462F4770405D4193B3E056
:102910000FD0C9F7F6CF462F4F70405D4A3318F0FD
:10292000495D31FD4052419302D0A9F7EACFB4E0AE
:10293000A6959795879577956795BA95C9F7009766
:102940006105710508959B01AC010A2E0694579507
:10295000479537952795BA95C9F7620F731F841F5E
:0A296000951FA01D0895F894FFCF05
:10296A005072657373204C65667420666F722045D9
:10297A00617379204D6F64650050726573732052DC
:10298A006967687420666F722048617264204D6FAF
:10299A00646500507265737320446F776E20666FAA
:1029AA00722044656D6F0047616D65204F766572D0
:1029BA000050726573732043656E747265204275A8
:1029CA0074746F6E20546F2052657475726E205441
:1029DA006F204D656E7500253033640074696D652E
:1029EA00206C6566743A0044454D4F202D20507284
:1029FA006573732043656E74726520746F20457821
:102A0A0069740073636F72653A0075007A003A015F
:102A1A003F016E008200FA000E0114003C003200F1
:102A2A005A0032005000140032009600B4007800B8
:102A3A0096003C0096001E0078000101000000008C
:102A4A00000000000001020203030303040404045B
:102A5A000404040405050505050505050505050520
:102A6A000505050506060606060606060606060600
:102A7A0006060606060606060606060606060606EC
:102A8A0006060606070707070707070707070707D0
:102A9A0007070707070707070707070707070707BC
:102AAA0007070707070707070707070707070707AC
:102ABA00070707070707070707070707070707079C
:102ACA000707070708080808080808080808080880
:102ADA00080808080808080808080808080808086C
:102AEA00080808080808080808080808080808085C
:102AFA00080808080808080808080808080808084C
:102B0A00080808080808080808080808080808083B
:102B1A00080808080808080808080808080808082B
:102B2A00080808080808080808080808080808081B
:102B3A00080808080808080808080808080808080B
:042B4A000808080867
:00000001FF
