:100000000C943A010C9459010C9459010C94590127
:100010000C9459010C9474090C9474090C941105F6
:100020000C9459010C9459010C9459010C945901E8
:100030000C9459010C9459010C9459010C945901D8
:100040000C9459010C9405030C9459010C9459011A
:100050000C9459010C9459010C9459010C945901B8
:100060000C9459010C9459010C9459010C945901A8
:100070000C9459010C9459010C9459010C94590198
:100080000C9469020C9459010C9459010C94590177
:100090000C9459010C945901000000000000005F0D
:1000A00000000003000300143E143E14242A7F2A9B
:1000B000124333086661364955225000050300009B
:1000C000001C2241000041221C0014083E081408B4
:1000D000083E0808005030000008080808080060C2
:1000E00060000020100804023E5149453E00040211
:1000F0007F00426151494622414949361814127F16
:100100001027454545393E494949320101710907E2
:100110003649494936264949493E003636000000ED
:10012000563600000814224100141414141400411F
:1001300022140802015109063E4159555E7E090903
:10014000097E7F494949363E414141227F41414133
:100150003E7F494949417F090909013E4141493AE8
:100160007F0808087F00417F4100304040403F7FCA
:10017000081422417F404040407F020C027F7F02F2
:1001800004087F3E4141413E7F090909061E2121A5
:10019000215E7F09090976264949493201017F011B
:1001A000013F4040403F1F2040201F7F2010207F04
:1001B00041221C224107087008076151494543004C
:1001C0007F41000002040810200000417F0004026B
:1001D0000102044040404040000102040020545409
:1001E00054787F4444443838444444443844444474
:1001F0007F385454541804047E0505085454543C64
:100200007F0804047800447D40002040443D007F86
:100210001028440000417F40007C047804787C086A
:1002200004047838444444387C1414140808141422
:10023000147C007C080404485454542004043F44B3
:10024000443C4040207C1C2040201C3C4030403C32
:1002500044281028440C5050503C4464544C4400F2
:100260000836414100007F0000414136080002018C
:100270000204020011241FBECFEFD0E2DEBFCDBFCB
:1002800012E0A0E0B1E0E4EDF6E200E00BBF02C056
:1002900007900D92A439B107D9F712E0A4E9B2E0B2
:1002A00001C01D92AD3DB107E1F70E94A2010C947F
:1002B00068130C94000080917C008B6480937C0018
:1002C00080917A00866080937A0080917A00806CB9
:1002D00080937A0020EA3FE003C0C9010197F1F75B
:1002E00080917A0084FFF9CF2091780030E040912E
:1002F000790080917A008F7780937A00942F80E044
:10030000282B392B81EE9CEA28273927C90108952B
:100310008091CD029091CE029C0136952795309325
:10032000CE022093CD0280FF08C080E094EB282706
:1003300039273093CE022093CD028091CD02909147
:10034000CE020895FF920F931F93CF93DF9380E81F
:1003500080936100109261000E9435090E94B407E9
:100360008DE30E942B06EE9A8DB380638DBB1092B5
:10037000800098E09093810080918100816080935B
:10038000810080916F00826080936F0010929000D6
:10039000909391008091910084608093910080916E
:1003A000710082608093710082EF9BE290939900CC
:1003B000809398000E945B019093CE028093CD02BF
:1003C00011E02CE3F22E02E0CFEFDFEF1093A40256
:1003D000A7EAB2E0EAE7F1E088E001900D928150EF
:1003E000E1F7A2ECB2E0E7EAF2E088E001900D92DA
:1003F0008150E1F7AFEAB2E0E2E8F1E088E0019095
:100400000D928150E1F7AAEBB2E0EFEAF2E088E06A
:1004100001900D928150E1F7F092A3020093A202A5
:100420001093CA021092B7021092B802D0938900BA
:10043000C09388000E94290980E091E064E170E0A7
:1004400044E150E00E940B0989E191E064E170E031
:1004500048E250E00E940B0910C00E94E509892B78
:1004600021F01092B9021092A4020E94140A892B62
:1004700021F01093B9021092A4028091A402882363
:1004800061F70E94750778948091A3028823E1F7B1
:10049000F8940E942B0983E391E06AE570E046E955
:1004A00050E00E940B098DE391E06AE070E04AEAB7
:1004B00050E00E940B092E9A07C01E9B03C00E94A9
:1004C000290902C00E942B096799F7CF0E9475077E
:1004D0007DCF1F920F920FB60F920BB60F92112481
:1004E000EF92FF920F931F932F933F934F935F933E
:1004F0006F937F938F939F93AF93BF93EF93FF93EC
:10050000DF93CF9300D000D0CDB7DEB78091A302A8
:1005100000D000D000D0EDB7FEB731968E010F5F4E
:100520001F4FADB7BEB712961C930E93119733E6CB
:10053000E32E31E0F32EF382E282848315820E945F
:1005400091108DB79EB706960FB6F8949EBF0FBE5A
:100550008DBF88E691E061E070E041E050E00E94EC
:100560000B09C80166E470E041E050E00E940B090D
:100570008091A30281508093A3028091B70200D0A2
:1005800000D000D0EDB7FEB73196ADB7BEB712962A
:100590001C930E931197F382E282848315820E944A
:1005A00091108DB79EB706960FB6F8949EBF0FBEFA
:1005B0008DBF83E791E064E670E041E050E00E9487
:1005C0000B09C80166E970E041E050E00E940B09A8
:1005D0000F900F900F900F90CF91DF91FF91EF91BF
:1005E000BF91AF919F918F917F916F915F914F914B
:1005F0003F912F911F910F91FF90EF900F900BBEA5
:100600000F900FBE0F901F9018951F920F920FB66C
:100610000F920BB60F9211241F932F933F934F937A
:100620005F936F937F938F939F93AF93BF93CF937A
:10063000DF93EF93FF938091940287FF0CC080912A
:10064000A20281508093A2028091A202882319F411
:100650008EE08093A2028091940218165CF480913F
:10066000A2028F5F8093A2028091A2028F3010F0CD
:100670001092A202109294028091A2028830C9F0D6
:10068000893038F4843079F0863081F0823001F599
:1006900007C08C30A1F08E30A9F08A30C9F40CC0AC
:1006A0008FEF9FEF11C08FE190E00EC080EE97E0DA
:1006B0000BC08FEF97E008C080E098EF05C08FE196
:1006C00098EF02C080EE9FEF9093CC028093CB0214
:1006D0000E94B40A892BC1F08091AB029091AC02C8
:1006E000459790F08091AB029091AC020197909366
:1006F000AC028093AB028091AD029091AE02019763
:100700009093AE028093AD020E94A10A892BF1F072
:100710002091AD023091AE028091D1029091D2022F
:1007200002972817390790F48091AB029091AC02A0
:1007300001969093AC028093AB028091AD029091B0
:10074000AE0201969093AE028093AD020E94C70A5A
:10075000892BC1F08091A7029091A802892B91F07A
:100760008091A7029091A80201979093A80280938C
:10077000A7028091A9029091AA0201979093AA02E0
:100780008093A9020E94DA0A892BF1F02091A90234
:100790003091AA028091CF029091D0020197281740
:1007A000390790F48091A7029091A8020196909346
:1007B000A8028093A7028091A9029091AA020196B3
:1007C0009093AA028093A9028091CA02882309F417
:1007D00067C00E948801EC010E9488016CED70E006
:1007E0000E944610182F0E94880168E171E00E9463
:1007F0004610282F2C5E2431B0F3CE0166E070E065
:100800000E9446108F5F8430C9F0853038F4823002
:1008100079F0833080F4813001F507C08630A1F093
:10082000863078F08730C9F412C08FEF9FEF11C087
:100830008FE190E00EC080EE97E00BC08FEF97E065
:1008400008C080E098EF05C08FE198EF02C080EE0D
:100850009FEF9093A6028093A502822F90E0909341
:10086000B4028093B302212F30E03093B002209382
:10087000AF022C5E3F4F3093B2022093B1024496F8
:100880009093B6028093B5021092CA028091B90289
:10089000882331F00E94880181708F5F8093B802B5
:1008A0008091B802823009F05EC08091AF029091D1
:1008B000B00240918B01242F332727FD3095820F02
:1008C000931F9093B0028093AF028091B1029091F8
:1008D000B202280F391F3093B2022093B1028091E7
:1008E000B3029091B40250918A01252F332727FD3E
:1008F0003095820F931F9093B4028093B30280913E
:10090000B5029091B602280F391F3093B60220939A
:10091000B5022091B1023091B2028091CF02909144
:10092000D00201972817390730F48091AF029091D7
:10093000B002892B19F4419540938B018091B30249
:100940009091B402459760F02091B5023091B602C3
:100950008091D1029091D20201972817390718F09F
:10096000519550938A012091AB023091AC02809155
:10097000B3029091B40228173907E8F12091AD0233
:100980003091AE028091B5029091B6028217930722
:1009900090F12091A7023091A8028091AF0290912E
:1009A000B0022817390738F12091A9023091AA0224
:1009B0008091B1029091B20282179307E0F02091EA
:1009C000CB023091CC028091A5029091A60228170B
:1009D000390789F48091A3028B5F8093A30291E091
:1009E0009093CA028091B7028F5F8093B702909371
:1009F0008B0190938A01FF91EF91DF91CF91BF918D
:100A0000AF919F918F917F916F915F914F913F91A6
:100A10002F911F910F900BBE0F900FBE0F901F9044
:100A200018951F920F920FB60F920BB60F921124CA
:100A30000F931F932F933F934F935F936F937F93E6
:100A40008F939F93AF93BF93EF93FF930091DB023C
:100A50001091DC022091BA023091BB024091BC029D
:100A60005091BD026091BE027091BF028091C002A0
:100A70009091C1020E9464060091A5021091A60205
:100A80002091AF023091B0024091B1025091B20278
:100A90006091B3027091B4028091B5029091B60258
:100AA0000E9464060091DB021091DC022091C202D8
:100AB0003091C3024091C4025091C5026091C602B8
:100AC0007091C7028091C8029091C9020E94640689
:100AD0000091CB021091CC022091A7023091A80284
:100AE0004091A9025091AA026091AB027091AC02B0
:100AF0008091AD029091AE020E946406A2ECB2E039
:100B0000E7EAF2E088E001900D928150E1F7AAEB6C
:100B1000B2E0EFEAF2E088E001900D928150E1F757
:100B2000FF91EF91BF91AF919F918F917F916F91C5
:100B30005F914F913F912F911F910F910F900BBE9D
:100B40000F900FBE0F901F90189593E89093B000F0
:100B500091E09093B1008093B30008959C0190932D
:100B6000D4028093D30286E390E080930040211565
:100B7000310589F480EF90E09093D0028093CF020A
:100B800080E491E09093D2028093D10288E490E0D7
:100B9000809300413BC02130310589F480E491E02D
:100BA0009093D0028093CF0280EF90E09093D20296
:100BB0008093D10288EE90E08093004127C02230DC
:100BC000310589F480EF90E09093D0028093CF02BA
:100BD00080E491E09093D2028093D10288E890E083
:100BE0008093004113C02330310581F480E491E00B
:100BF0009093D0028093CF0280EF90E09093D20246
:100C00008093D10288E290E0809300418AE290E0F4
:100C10008093004020E030E0309300412093004179
:100C20008091CF029091D0020197909300418093E0
:100C300000418BE290E0809300403093004120938C
:100C400000418091D1029091D2020197909300418E
:100C50008093004108951F93682F873718F010E0A4
:100C600066E711C0883010F468E00CC08D3310F0D6
:100C700010E009C08F3110F011E005C0803110F094
:100C800012E001C013E081EB90E0809300401093EC
:100C9000004170E0882777FD8095982F0E949F0D76
:100CA0009B01AC0160E070E080EF94E40E94C30C13
:100CB0000E94ED0A70E002C0759567951A95E2F7FB
:100CC000609300411F9108950F931F93DF93CF937B
:100CD000CDB7DEB728970FB6F894DEBF0FBECDBFF5
:100CE00029833A834B835C836D837E838F839887CC
:100CF00069817A812B813C81ED81FE814F8158850C
:100D00008AE290E08093004070930041609300413C
:100D100030930041209300418BE290E080930040AB
:100D2000F0930041E0930041509300414093004113
:100D30008CE290E0809300402F5F3F4F261B370BE3
:100D40004F5F5F4F4E1B5F0B24173507C8F4842F8E
:100D5000877090E0829FB001839F700D929F700D0D
:100D60001124F3E056954795FA95E1F7842F90E02A
:100D7000829FF001839FF00D929FF00D112418C007
:100D8000822F877090E0849FB001859F700D949FA3
:100D9000700D1124E3E036952795EA95E1F7822F4F
:100DA00090E0849FF001859FF00D949FF00D112439
:100DB000862F877005C01093004100930041815039
:100DC0008823C9F7CB0123E0969587952A95E1F70B
:100DD0008E0F9F1F21C0109300410093004110937C
:100DE0000041009300411093004100930041109393
:100DF0000041009300411093004100930041109383
:100E00000041009300411093004100930041109372
:100E100000410093004101970097E9F628960FB62C
:100E2000F894DEBF0FBECDBFCF91DF911F910F9120
:100E30000895EF92FF920F931F93DF93CF93CDB757
:100E4000DEB728970FB6F894DEBF0FBECDBF29835B
:100E50003A834B835C836D837E838F83988729815C
:100E60003A81AB81BC81ED80FE806F8178858AE21A
:100E700090E0809300403093004120930041B09374
:100E80000041A09300418BE290E080930040F092FB
:100E90000041E092004170930041609300418CE278
:100EA00090E0809300400FC0F801819191918F01F3
:100EB00090930041809300414F5F5F4F6417750727
:100EC00098F72F5F3F4FA217B30710F0A701F6CF97
:100ED00028960FB6F894DEBF0FBECDBFCF91DF913D
:100EE0001F910F91FF90EF9008950F931F93DF9341
:100EF000CF93CDB7DEB728970FB6F894DEBF0FBEFD
:100F0000CDBF1092D6021092D5021092D802109244
:100F1000D7022091CF023091D002215030408091F1
:100F2000D1029091D20201971A821982422F3C83FA
:100F30002B831E821D8298878F830091DB02109184
:100F4000DC0229813A815C816D817E8198850E94D5
:100F5000640628960FB6F894DEBF0FBECDBFCF91C2
:100F6000DF911F910F91089586E08093750080E8CE
:100F7000809374003F9A249A80ED97E00197F1F7EF
:100F8000479880E49CE90197F1F7479A80EB94E059
:100F900028EC30E0F9013197F1F70197D9F788E2B1
:100FA00090E08093004081E190E08093004088E5EC
:100FB00092E028EC30E0F9013197F1F70197D9F789
:100FC00041E050E08BEC90E0809300404093004182
:100FD00080EC90E08093004088E096E2909300419E
:100FE0008093004120E130E081EC90E0809300406C
:100FF0002093004185EC90E0809300408EE395E3E0
:10100000909300418093004125EB30E087EC90E025
:10101000809300402093004186EF90E08093004051
:101020004093004180E090E0909300418093004124
:1010300025E530E08AE390E0809300402093004172
:1010400080E090E00E94AE050E9475071092D602E3
:101050001092D5021092D8021092D7021092DC02A0
:101060001092DB028FEF9FEF9093DA028093D90208
:1010700089E290E08093004084EF91E028EC30E03A
:10108000F9013197F1F70197D9F780E090E025E376
:1010900030E0209300408093004180916A0080629C
:1010A00080936A002C9A0895CF92DF92EF92FF927C
:1010B0000F931F93CF93DF93982F2091D5023091F8
:1010C000D60289010C5F1F4FA091D702B091D802C0
:1010D00080528F3508F083C0ED01279685E0980295
:1010E000F0011124E850F0408BE290E08093004042
:1010F000B0930041A0930041D0930041C0930041C0
:101100009AE2C92ED12C8CE2E82EF12C29C0C09293
:1011100000403093004120930041309300412093E0
:101120000041E09200407491AD0161E013C0862F50
:10113000872329F08091D9029091DA0204C080912E
:10114000DB029091DC0290930041809300414F5F5D
:101150005F4F660FC417D50750F731962F5F3F4F8B
:1011600002171307A0F68AE290E0809300403093C4
:1011700000412093004130930041209300418CE2D4
:1011800090E0809300409D010AC08091DB02909125
:10119000DC0290930041809300412F5F3F4FC217C4
:1011A000D30798F78091D5029091D6020696909336
:1011B000D6028093D5022091CF023091D0028217BF
:1011C000930768F01092D6021092D5028091D70250
:1011D0009091D80208969093D8028093D702DF911D
:1011E000CF911F910F91FF90EF90DF90CF900895D6
:1011F0001F93CF93DF93EC0110E003C00E945408CB
:101200001F5FFE01E10FF11D80818823B9F7DF9197
:10121000CF911F9108951F93CF93DF93EC017093AB
:10122000D6026093D5025093D8024093D70210E0C3
:1012300003C00E9454081F5FFE01E10FF11D808171
:101240008823B9F7DF91CF911F910895279A2F989E
:1012500008952F9A089514BC15BC2F98089593E80B
:1012600094BD91E095BD87BD08958DB18F748DB902
:101270008EB1806B8EB987B1837C87B988B18C635E
:1012800088B9EAE6F0E080818568808308959CB1A2
:10129000907329F4809195028032A9F406C09033AE
:1012A000D9F480919502803139F480919402815073
:1012B00080939402903329F480919502803261F4F6
:1012C00006C0992349F480919502803129F48091D8
:1012D00094028F5F80939402909395028091940280
:1012E000089586B18C7308951F920F920FB60F92D6
:1012F0000BB60F9211242F933F934F935F936F93ED
:101300007F938F939F93AF93BF93EF93FF930E942D
:10131000470988EC90E00197F1F7FF91EF91BF91B9
:10132000AF919F918F917F916F915F914F913F917D
:101330002F910F900BBE0F900FBE0F901F9018951E
:101340006F98779A87B1837C87B988B18C6388B9A5
:101350006F98779A87B1837C87B988B18C6388B995
:10136000EAE6F0E08081856880830895679919C076
:101370008091960290919702892B99F48091A00216
:101380009091A102892B69F481E090E090939702FB
:10139000809396029093A1028093A00221E030E016
:1013A00012C0679B0EC08091960290919702892B84
:1013B00041F010929702109296021092A1021092A0
:1013C000A00220E030E0C9010895329919C080914F
:1013D000980290919902892B99F48091A0029091A2
:1013E000A102892B69F481E090E0909399028093A7
:1013F00098029093A1028093A00221E030E012C0F5
:10140000329B0EC08091980290919902892B41F0F5
:1014100010929902109298021092A1021092A002CA
:1014200020E030E0C9010895349919C080919A02F2
:1014300090919B02892B99F48091A0029091A10236
:10144000892B69F481E090E090939B0280939A024B
:101450009093A1028093A00221E030E012C0349B5F
:101460000EC080919A0290919B02892B41F01092BC
:101470009B0210929A021092A1021092A00220E008
:1014800030E0C9010895339919C080919C02909170
:101490009D02892B99F48091A0029091A102892B41
:1014A00069F481E090E090939D0280939C02909378
:1014B000A1028093A00221E030E012C0339B0EC055
:1014C00080919C0290919D02892B41F010929D0287
:1014D00010929C021092A1021092A00220E030E033
:1014E000C9010895359919C080919E0290919F027B
:1014F000892B99F48091A0029091A102892B69F423
:1015000081E090E090939F0280939E029093A102CD
:101510008093A00221E030E012C0359B0EC0809184
:101520009E0290919F02892B41F010929F0210928F
:101530009E021092A1021092A00220E030E0C901A8
:101540000895359909C08091A0029091A102892B3C
:1015500019F421E030E006C01092A1021092A0021E
:1015600020E030E0C9010895339909C08091A002BC
:101570009091A102892B19F421E030E006C010926D
:10158000A1021092A00220E030E0C9010895329932
:1015900009C08091A0029091A102892B19F421E049
:1015A00030E006C01092A1021092A00220E030E0CC
:1015B000C9010895349909C08091A0029091A102B7
:1015C000892B19F421E030E006C01092A10210929C
:1015D000A00220E030E0C9010895EF92FF920F933E
:1015E0001F937B018C0120E030E040E05FE40E942B
:1015F0006F0D88238CF0C801B70120E030E040E097
:101600005FE40E94650C0E94FD0D9B01AC0120501F
:1016100030404040504806C0C801B7010E94FD0D4F
:101620009B01AC01B901CA011F910F91FF90EF908E
:101630000895A0E0B0E0EFE1FBE00C945A10DC016B
:101640002B01FA019C91923008F439C1EB01888199
:10165000823008F433C1943069F4843009F02FC12A
:1016600011969C9111978981981709F428C1ACE8CB
:10167000B1E025C1843009F421C18230A9F492304F
:1016800009F01DC19A01AD0188E0EA010990AE019F
:10169000E90109929E018150C1F7E2018981119609
:1016A0009C918923818308C1923009F407C1129665
:1016B0002D903C901397EB018A819B811496AD90FD
:1016C000BD90CD90DC901797EC80FD800E811F813E
:1016D0009101281B390BB90137FF04C06627772712
:1016E000621B730B603271050CF061C01216130699
:1016F0006CF537014801062E04C0969487947794C0
:1017000067940A94D2F721E030E040E050E004C052
:10171000220F331F441F551F6A95D2F721503040C6
:10172000404050402E213F214023512321153105B7
:101730004105510521F021E030E040E050E0790121
:101740008A01E628F728082919293CC0232BD1F162
:10175000260E371E35014601062E04C09694879446
:10176000779467940A94D2F721E030E040E050E0AB
:1017700004C0220F331F441F551F6A95D2F7215012
:101780003040404050402A213B214C215D21211511
:1017900031054105510521F021E030E040E050E005
:1017A00059016A01A628B728C828D9280BC0821574
:1017B00093052CF01C01AA24BB24650103C0EE2470
:1017C000FF24870111969C91D20111968C91981754
:1017D00009F445C0992339F0A80197012A193B095A
:1017E0004C095D0906C0A60195012E193F09400B61
:1017F000510B57FD08C01182338222822483358326
:10180000468357831DC081E08183338222828827EB
:101810009927DC01821B930BA40BB50B8483958362
:10182000A683B7830DC0220F331F441F551F248387
:101830003583468357838281938101979383828383
:101840002481358146815781DA01C9010197A109B7
:10185000B1098F5F9F4FAF4FBF4328F30BC09183F8
:1018600033822282EA0CFB1C0C1D1D1DE482F582D2
:101870000683178383E080832481358146815781E5
:1018800057FF1AC0C901AA2797FDA095BA2F8170EA
:101890009070A070B0705695479537952795822B1C
:1018A000932BA42BB52B84839583A683B783828146
:1018B0009381019693838283DF0101C0D201CD0120
:1018C000CDB7DEB7E2E10C947610A0E2B0E0EBE633
:1018D000FCE00C94661069837A838B839C832D8350
:1018E0003E834F835887E9E0EE2EF12CEC0EFD1E6F
:1018F000CE010196B7010E94750F8E010F5E1F4F3A
:10190000CE010596B8010E94750F8A8991E089275A
:101910008A8BC701B801AE01475E5F4F0E94190B69
:101920000E94A00EA096E6E00C948210A0E2B0E027
:10193000ECE9FCE00C94661069837A838B839C83CA
:101940002D833E834F835887F9E0EF2EF12CEC0E68
:10195000FD1ECE010196B7010E94750F8E010F5E2C
:101960001F4FCE010596B8010E94750FC701B8013F
:10197000AE01475E5F4F0E94190B0E94A00EA09619
:10198000E6E00C948210A8E1B0E0E9ECFCE00C94F5
:10199000621069837A838B839C832D833E834F837C
:1019A0005887B9E0EB2EF12CEC0EFD1ECE0101960E
:1019B000B7010E94750F8E010F5E1F4FCE01059675
:1019C000B8010E94750F2985223008F47EC039893C
:1019D000323010F4B8017CC08A859A8989278A87B9
:1019E000243011F0223031F4231709F06EC06CE876
:1019F00071E06EC0343039F41D861E861F86188A49
:101A00001C861B8604C0323021F484E08987B7012C
:101A10005FC02B853C858B899C89281B390B3C87B3
:101A20002B87ED84FE840F851889AD88BE88CF880A
:101A3000D88CEA14FB040C051D0540F4EE0CFF1CC9
:101A4000001F111F215030403C872B8720E030E0E1
:101A500040E050E080E090E0A0E0B0E460E070E0C2
:101A6000EA14FB040C051D0540F0282B392B4A2BEA
:101A70005B2BEA18FB080C091D09B695A7959795ED
:101A80008795EE0CFF1C001F111F6F5F7F4F6F319A
:101A9000710531F7DA01C9018F779070A070B070CD
:101AA00080349105A105B10561F427FD0AC0E11458
:101AB000F1040105110529F0205C3F4F4F4F5F4FA6
:101AC00020782D873E874F87588BBE01675F7F4FF9
:101AD000CB010E94A00E6896EAE00C947E10A8E16B
:101AE000B0E0E5E7FDE00C94661069837A838B83B0
:101AF0009C832D833E834F83588789E0E82EF12C09
:101B0000EC0EFD1ECE010196B7010E94750F8E01ED
:101B10000F5E1F4FCE010596B8010E94750F898593
:101B2000823040F08989823028F0C701B8010E94D4
:101B3000ED0F01C08FEF6896E6E00C948210A8E0EC
:101B4000B0E0E5EAFDE00C9463109B01AC0183E09A
:101B50008983DA01C9018827B7FD83959927AA27C8
:101B6000BB27B82E211531054105510519F482E036
:101B700089833AC08823A9F0203080E0380780E0CC
:101B8000480780E8580729F460E070E080E09FECA7
:101B900030C0EE24FF248701E21AF30A040B150B70
:101BA00002C079018A018EE1C82ED12CDC82CB8261
:101BB000ED82FE820F831887C801B7010E94510E83
:101BC00001971816190684F4082E04C0EE0CFF1CA9
:101BD000001F111F0A94D2F7ED82FE820F8318872F
:101BE000C81AD90ADC82CB82BA82CE0101960E9441
:101BF000A00E2896E9E00C947F10ACE0B0E0E3E0A2
:101C0000FEE00C946A1069837A838B839C83CE01F7
:101C10000196BE016B5F7F4F0E94750F8D818230F0
:101C200061F1823050F1843021F48E81882351F1AA
:101C30002EC02F81388537FD20C06E812F313105B0
:101C40001CF06623F9F023C08EE190E0821B930B19
:101C500029853A854B855C8504C05695479537950F
:101C600027958A95D2F76623B1F050954095309527
:101C700021953F4F4F4F5F4F0EC020E030E040E0D6
:101C800050E009C02FEF3FEF4FEF5FE704C020E0C7
:101C900030E040E050E8B901CA012C96E2E00C9433
:101CA0008610EF92FF920F931F937B018C0180E0CF
:101CB000E81680E0F80681E0080780E0180788F45D
:101CC0008FEFE816F1040105110531F028F088E0E6
:101CD00090E0A0E0B0E017C080E090E0A0E0B0E0CD
:101CE00012C080E0E81680E0F80680E0080781E096
:101CF000180728F088E190E0A0E0B0E004C080E19F
:101D000090E0A0E0B0E020E230E040E050E0281BAE
:101D1000390B4A0B5B0B04C016950795F794E794B3
:101D20008A95D2F7F701EC56FE4F8081281B3109C6
:101D300041095109C9011F910F91FF90EF9008953A
:101D4000DF92EF92FF920F931F93FC01E480F580E6
:101D500006811781D1808081823048F480E090E054
:101D6000A0E1B0E0E82AF92A0A2B1B2BA5C0843099
:101D700009F49FC0823021F4EE24FF24870105C0BE
:101D8000E114F1040105110519F4E0E0F0E096C05A
:101D9000628173819FEF623879070CF05BC022E8A3
:101DA0003FEF261B370B2A3131052CF020E030E0C5
:101DB00040E050E02AC0B801A701022E04C0769589
:101DC0006795579547950A94D2F781E090E0A0E097
:101DD000B0E004C0880F991FAA1FBB1F2A95D2F735
:101DE0000197A109B1098E219F21A023B12300975A
:101DF000A105B10521F081E090E0A0E0B0E09A01FA
:101E0000AB01282B392B4A2B5B2BDA01C9018F77C9
:101E10009070A070B07080349105A105B10539F4BF
:101E200027FF09C0205C3F4F4F4F5F4F04C0215C2C
:101E30003F4F4F4F5F4FE0E0F0E02030A0E03A0727
:101E4000A0E04A07A0E45A0710F0E1E0F0E07901D1
:101E50008A0127C06038710564F5FB01E158FF4F26
:101E6000D801C7018F779070A070B0708034910551
:101E7000A105B10539F4E7FE0DC080E490E0A0E0D3
:101E8000B0E004C08FE390E0A0E0B0E0E80EF91EFF
:101E90000A1F1B1F17FF05C016950795F794E794B7
:101EA000319687E016950795F794E7948A95D1F7D0
:101EB00005C0EE24FF248701EFEFF0E06E2F679559
:101EC00066276795902F9F77D794DD24D7948E2F20
:101ED0008695492F462B582F5D29B701CA011F91BE
:101EE0000F91FF90EF90DF900895FC01DB0140819E
:101EF00051812281622F6F7770E0221F2227221FDB
:101F00009381892F880F822B282F30E0991F9927E2
:101F1000991F11969C93119721153105A9F541152B
:101F200051056105710511F482E037C082E89FEF29
:101F300013969C938E9312979A01AB0167E0220F40
:101F4000331F441F551F6A95D1F783E08C930DC052
:101F5000220F331F441F551F12968D919C9113978A
:101F6000019713969C938E931297203080E0380748
:101F700080E0480780E4580758F314962D933D936A
:101F80004D935C93179708952F3F310579F44115D0
:101F900051056105710519F484E08C93089564FF7F
:101FA00003C081E08C9312C01C9210C02F573040A8
:101FB00013963C932E93129783E08C9387E0440F03
:101FC000551F661F771F8A95D1F7706414964D933D
:101FD0005D936D937C93179708951F93DC01FB012C
:101FE0009C91923008F447C08081823008F443C04D
:101FF000943051F411961C91843099F58181682FA9
:1020000070E0611B71093FC0843021F0923031F4DF
:102010008230B9F18181882389F12DC011961C91FC
:1020200011978230F1F081811817D9F412962D9111
:102030003C911397828193818217930794F028171C
:102040003907BCF014968D919D910D90BC91A02DF7
:102050002481358146815781281739074A075B0754
:1020600018F4112341F00AC082179307A407B5079B
:1020700040F4112319F061E070E005C06FEF7FEFCD
:1020800002C060E070E0CB011F910895AA1BBB1B4A
:1020900051E107C0AA1FBB1FA617B70710F0A61B68
:1020A000B70B881F991F5A95A9F780959095BC0189
:1020B000CD0108952F923F924F925F926F927F923F
:1020C0008F929F92AF92BF92CF92DF92EF92FF9248
:1020D0000F931F93CF93DF93CDB7DEB7CA1BDB0BF4
:1020E0000FB6F894DEBF0FBECDBF09942A88398899
:1020F00048885F846E847D848C849B84AA84B984A0
:10210000C884DF80EE80FD800C811B81AA81B981AB
:10211000CE0FD11D0FB6F894DEBF0FBECDBFED01BF
:1021200008950F931F93DF93CF93CDB7DEB72E970C
:102130000FB6F894DEBF0FBECDBF0D891E8986E0B5
:102140008C831A8309838FEF9FE79E838D839E0183
:10215000275E3F4FCE0101966F89788DA9010E94BD
:10216000C2102F813885020F131FF80110822E969E
:102170000FB6F894DEBF0FBECDBFCF91DF911F9198
:102180000F9108952F923F924F925F926F927F929C
:102190008F929F92AF92BF92CF92DF92EF92FF9277
:1021A0000F931F93DF93CF93CDB7DEB72B970FB667
:1021B000F894DEBF0FBECDBF3C012B015A01FC01DC
:1021C00017821682838181FD03C06FEF7FEFC6C146
:1021D0009AE0892E1E010894211C311CF3012381F1
:1021E000F20123FD859123FF81912F01882309F4BA
:1021F000B2C1853239F423FD859123FF81912F01EE
:10220000853229F490E0B3010E94DE12E7CF982FC7
:10221000FF24EE249924FFE1FF15D0F09B3269F0F2
:102220009C3228F4903259F0933291F40EC09D32D2
:1022300049F0903369F441E024C052E0F52A84E08B
:10224000F82A28C098E0F92A25C0E0E1FE2A22C039
:10225000F7FC29C0892F80538A3070F4F6FE05C040
:10226000989C902C1124980E15C0E89CE02C112409
:10227000E80EF0E2FF2A0EC09E3229F4F6FC6BC194
:1022800040E4F42A07C09C3619F450E8F52A02C04D
:10229000983649F4F20123FD959123FF91912F0186
:1022A000992309F0B8CF892F8554833018F08052D4
:1022B000833038F444E050E0A40EB51E5FE3598348
:1022C0000FC0933631F0933779F0933509F056C04B
:1022D00020C0F5018081898342E050E0A40EB51E44
:1022E000610101E010E012C0F501C080D180F6FC70
:1022F00003C06FEF7FEF02C0692D70E042E050E055
:10230000A40EB51EC6010E94D3128C015FE7F52210
:1023100014C0F501C080D180F6FC03C06FEF7FEFE1
:1023200002C0692D70E042E050E0A40EB51EC60167
:102330000E94C8128C0150E8F52AF3FE07C01AC0AB
:1023400080E290E0B3010E94DE12EA948E2D90E0CC
:1023500008171907A8F30EC0F601F7FC8591F7FEE0
:1023600081916F0190E0B3010E94DE12E110EA94C6
:10237000015010400115110579F7EAC0943611F0AB
:10238000993669F5F7FE08C0F50120813181428157
:10239000538184E090E00AC0F501808191819C0125
:1023A000442737FD4095542F82E090E0A80EB91ED7
:1023B0009FE6F92257FF09C0509540953095219529
:1023C0003F4F4F4F5F4FE0E8FE2ACA01B901A1011C
:1023D0002AE030E00E940A13D82ED21840C0953768
:1023E00029F41F2D1F7E2AE030E01DC01F2D197F0C
:1023F0009F3661F0903720F4983509F0ACC00FC0DB
:10240000903739F0983709F0A6C004C028E030E0D2
:102410000AC0106114FD146020E130E004C014FD16
:10242000166020E132E017FF08C0F501608171817C
:102430008281938144E050E008C0F5018081918160
:10244000BC0180E090E042E050E0A40EB51EA10186
:102450000E940A13D82ED2188FE7F82EF122F6FE2A
:102460000BC05EEFF522D91438F4F4FE07C0F2FC7D
:1024700005C08FEEF82202C01D2D01C0192DF4FEFB
:102480000DC0FE01ED0DF11D8081803319F499EE30
:10249000F92208C01F5FF2FE05C003C08F2D8678A9
:1024A00009F01F5F0F2DF3FC14C0F0FE0FC01E15C6
:1024B00010F09D2C0BC09D2C9E0C911A1E2D06C059
:1024C00080E290E0B3010E94DE121F5F1E15C0F390
:1024D00004C01E1510F4E11A01C0EE2404FF0FC061
:1024E00080E390E0B3010E94DE1202FF1DC001FDF7
:1024F00003C088E790E00EC088E590E00BC0802F15
:10250000867891F001FF02C08BE201C080E2F7FC07
:102510008DE290E0B3010E94DE1206C080E390E0FD
:10252000B3010E94DE129A94D914C0F3DA94F10137
:10253000ED0DF11D808190E0B3010E94DE12DD20DF
:10254000A9F706C080E290E0B3010E94DE12EA948F
:10255000EE20C1F743CEF30166817781CB012B9644
:102560000FB6F894DEBF0FBECDBFCF91DF911F91A4
:102570000F91FF90EF90DF90CF90BF90AF909F9022
:102580008F907F906F905F904F903F902F90089525
:10259000FC010590615070400110D8F7809590952E
:1025A0008E0F9F1F0895FC01615070400190011033
:1025B000D8F7809590958E0F9F1F08950F931F93C6
:1025C000CF93DF938C01EB018B8181FF1BC082FFD6
:1025D0000DC02E813F818C819D812817390764F4BD
:1025E000E881F9810193F983E88306C0E885F985DC
:1025F000802F0995892B31F48E819F8101969F83CD
:102600008E8302C00FEF1FEFC801DF91CF911F91A2
:102610000F910895FA01AA27283051F1203181F154
:10262000E8946F936E7F6E5F7F4F8F4F9F4FAF4FDA
:10263000B1E03ED0B4E03CD0670F781F891F9A1FED
:10264000A11D680F791F8A1F911DA11D6A0F711DA1
:10265000811D911DA11D20D009F468943F912AE0AD
:10266000269F11243019305D3193DEF6CF01089595
:10267000462F4770405D4193B3E00FD0C9F7F6CFC6
:10268000462F4F70405D4A3318F0495D31FD40528E
:10269000419302D0A9F7EACFB4E0A6959795879524
:1026A00077956795BA95C9F7009761057105089503
:1026B0009B01AC010A2E06945795479537952795AF
:1026C000BA95C9F7620F731F841F951FA01D089547
:0426D000F894FFCFAC
:1026D4005072657373204C65667420666F72204572
:1026E400617379204D6F6465005072657373205275
:1026F4006967687420666F722048617264204D6F48
:1027040064650047616D65204F766572005072659F
:1027140073732043656E74726520427574746F6EB2
:1027240020546F2052657475726E20546F204D656D
:102734006E7500253033640074696D65206C6566C0
:10274400743A0073636F72653A0075007A003A0157
:102754003F016E008200FA000E010101000000003A
:102764000000000000010202030303030404040444
:102774000404040405050505050505050505050509
:1027840005050505060606060606060606060606E9
:1027940006060606060606060606060606060606D5
:1027A40006060606070707070707070707070707B9
:1027B40007070707070707070707070707070707A5
:1027C4000707070707070707070707070707070795
:1027D4000707070707070707070707070707070785
:1027E4000707070708080808080808080808080869
:1027F4000808080808080808080808080808080855
:102804000808080808080808080808080808080844
:102814000808080808080808080808080808080834
:102824000808080808080808080808080808080824
:102834000808080808080808080808080808080814
:102844000808080808080808080808080808080804
:1028540008080808080808080808080808080808F4
:042864000808080850
:00000001FF
